{
  "contractName": "Escrow",
  "abi": [
    {
      "inputs": [],
      "stateMutability": "nonpayable",
      "type": "constructor"
    },
    {
      "inputs": [
        {
          "internalType": "address",
          "name": "_payee",
          "type": "address"
        }
      ],
      "name": "setPayee",
      "outputs": [],
      "stateMutability": "nonpayable",
      "type": "function"
    },
    {
      "inputs": [
        {
          "internalType": "address",
          "name": "_payer",
          "type": "address"
        }
      ],
      "name": "setPayer",
      "outputs": [],
      "stateMutability": "nonpayable",
      "type": "function"
    },
    {
      "inputs": [
        {
          "internalType": "uint256",
          "name": "_amount",
          "type": "uint256"
        }
      ],
      "name": "setAmount",
      "outputs": [],
      "stateMutability": "nonpayable",
      "type": "function"
    },
    {
      "inputs": [],
      "name": "returnAllParameters",
      "outputs": [
        {
          "internalType": "uint256",
          "name": "",
          "type": "uint256"
        },
        {
          "internalType": "address",
          "name": "",
          "type": "address"
        },
        {
          "internalType": "address",
          "name": "",
          "type": "address"
        },
        {
          "internalType": "address",
          "name": "",
          "type": "address"
        }
      ],
      "stateMutability": "view",
      "type": "function"
    },
    {
      "inputs": [],
      "name": "deposit",
      "outputs": [],
      "stateMutability": "payable",
      "type": "function"
    },
    {
      "inputs": [],
      "name": "contractBalance",
      "outputs": [
        {
          "internalType": "uint256",
          "name": "",
          "type": "uint256"
        }
      ],
      "stateMutability": "view",
      "type": "function"
    },
    {
      "inputs": [],
      "name": "release",
      "outputs": [
        {
          "internalType": "uint256",
          "name": "",
          "type": "uint256"
        }
      ],
      "stateMutability": "nonpayable",
      "type": "function"
    }
  ],
  "bytecode": "0x608060405234801561001057600080fd5b5033600360006101000a81548173ffffffffffffffffffffffffffffffffffffffff021916908373ffffffffffffffffffffffffffffffffffffffff160217905550610a87806100616000396000f3fe6080604052600436106100705760003560e01c80638b7afe2e1161004e5780638b7afe2e146100f2578063d0e30db01461011d578063d55e697514610127578063d5fccde31461015057610070565b8063271f88b414610075578063410459ad1461009e57806386d1a69f146100c7575b600080fd5b34801561008157600080fd5b5061009c600480360381019061009791906106c8565b61017e565b005b3480156100aa57600080fd5b506100c560048036038101906100c09190610753565b610218565b005b3480156100d357600080fd5b506100dc6102ec565b6040516100e9919061078f565b60405180910390f35b3480156100fe57600080fd5b5061010761049f565b604051610114919061078f565b60405180910390f35b6101256104a7565b005b34801561013357600080fd5b5061014e60048036038101906101499190610753565b610539565b005b34801561015c57600080fd5b5061016561060d565b60405161017594939291906107b9565b60405180910390f35b3373ffffffffffffffffffffffffffffffffffffffff16600360009054906101000a900473ffffffffffffffffffffffffffffffffffffffff1673ffffffffffffffffffffffffffffffffffffffff161461020e576040517f08c379a000000000000000000000000000000000000000000000000000000000815260040161020590610881565b60405180910390fd5b8060008190555050565b3373ffffffffffffffffffffffffffffffffffffffff16600360009054906101000a900473ffffffffffffffffffffffffffffffffffffffff1673ffffffffffffffffffffffffffffffffffffffff16146102a8576040517f08c379a000000000000000000000000000000000000000000000000000000000815260040161029f90610881565b60405180910390fd5b80600160006101000a81548173ffffffffffffffffffffffffffffffffffffffff021916908373ffffffffffffffffffffffffffffffffffffffff16021790555050565b60003373ffffffffffffffffffffffffffffffffffffffff16600360009054906101000a900473ffffffffffffffffffffffffffffffffffffffff1673ffffffffffffffffffffffffffffffffffffffff161461037e576040517f08c379a000000000000000000000000000000000000000000000000000000000815260040161037590610881565b60405180910390fd5b6000544710156103c3576040517f08c379a00000000000000000000000000000000000000000000000000000000081526004016103ba90610913565b60405180910390fd5b6000600160009054906101000a900473ffffffffffffffffffffffffffffffffffffffff1673ffffffffffffffffffffffffffffffffffffffff164760405161040b90610964565b60006040518083038185875af1925050503d8060008114610448576040519150601f19603f3d011682016040523d82523d6000602084013e61044d565b606091505b5050905080610491576040517f08c379a0000000000000000000000000000000000000000000000000000000008152600401610488906109c5565b60405180910390fd5b61049961049f565b91505090565b600047905090565b3373ffffffffffffffffffffffffffffffffffffffff16600260009054906101000a900473ffffffffffffffffffffffffffffffffffffffff1673ffffffffffffffffffffffffffffffffffffffff1614610537576040517f08c379a000000000000000000000000000000000000000000000000000000000815260040161052e90610a31565b60405180910390fd5b565b3373ffffffffffffffffffffffffffffffffffffffff16600360009054906101000a900473ffffffffffffffffffffffffffffffffffffffff1673ffffffffffffffffffffffffffffffffffffffff16146105c9576040517f08c379a00000000000000000000000000000000000000000000000000000000081526004016105c090610881565b60405180910390fd5b80600260006101000a81548173ffffffffffffffffffffffffffffffffffffffff021916908373ffffffffffffffffffffffffffffffffffffffff16021790555050565b600080600080600054600160009054906101000a900473ffffffffffffffffffffffffffffffffffffffff16600260009054906101000a900473ffffffffffffffffffffffffffffffffffffffff16600360009054906101000a900473ffffffffffffffffffffffffffffffffffffffff16935093509350935090919293565b600080fd5b6000819050919050565b6106a581610692565b81146106b057600080fd5b50565b6000813590506106c28161069c565b92915050565b6000602082840312156106de576106dd61068d565b5b60006106ec848285016106b3565b91505092915050565b600073ffffffffffffffffffffffffffffffffffffffff82169050919050565b6000610720826106f5565b9050919050565b61073081610715565b811461073b57600080fd5b50565b60008135905061074d81610727565b92915050565b6000602082840312156107695761076861068d565b5b60006107778482850161073e565b91505092915050565b61078981610692565b82525050565b60006020820190506107a46000830184610780565b92915050565b6107b381610715565b82525050565b60006080820190506107ce6000830187610780565b6107db60208301866107aa565b6107e860408301856107aa565b6107f560608301846107aa565b95945050505050565b600082825260208201905092915050565b7f4f6e6c7920546869726420506172747920697320617574686f72697a6564207460008201527f6f206163636573732074686973206d6574686f64212121000000000000000000602082015250565b600061086b6037836107fe565b91506108768261080f565b604082019050919050565b6000602082019050818103600083015261089a8161085e565b9050919050565b7f43616e6e6f742072656c656173652066756e6473206265666f72652066756c6c60008201527f20616d6f756e742069732073656e740000000000000000000000000000000000602082015250565b60006108fd602f836107fe565b9150610908826108a1565b604082019050919050565b6000602082019050818103600083015261092c816108f0565b9050919050565b600081905092915050565b50565b600061094e600083610933565b91506109598261093e565b600082019050919050565b600061096f82610941565b9150819050919050565b7f43616c6c206661696c6564000000000000000000000000000000000000000000600082015250565b60006109af600b836107fe565b91506109ba82610979565b602082019050919050565b600060208201905081810360008301526109de816109a2565b9050919050565b7f53656e646572206d757374206265207468652070617965720000000000000000600082015250565b6000610a1b6018836107fe565b9150610a26826109e5565b602082019050919050565b60006020820190508181036000830152610a4a81610a0e565b905091905056fea2646970667358221220ec014cda5718b61adc569f06aec173e77fdcc80369e38168f8ad2f8a78c08e1164736f6c63430008110033",
  "immutableReferences": {},
  "source": "// SPDX-License-Identifier: MIT\n\npragma solidity ^0.8.17;\n\ncontract Escrow{\n    uint256 amount;\n    address payee;     // person who is recieving the amount\n    address payer;     // person who is paying the amount\n    address thirdparty;\n\n    constructor(){\n        thirdparty = msg.sender;  \n    }\n\n    function setPayee (address _payee) public thirdPartyOnly {\n        payee = _payee;\n    }\n    function setPayer (address _payer) public thirdPartyOnly {\n        payer =_payer;\n    }\n    function setAmount (uint256 _amount) public thirdPartyOnly{\n        amount = _amount;\n    }\n    function returnAllParameters() public view returns(uint256, address, address, address){\n        return (amount, payee, payer, thirdparty);\n    }\n\n    modifier thirdPartyOnly {\n        require(thirdparty == msg.sender, \"Only Third Party is authorized to access this method!!!\");\n        _;\n    }\n    modifier minimumWithdrawalAmount {\n        require(address(this).balance >= amount, \"Cannot release funds before full amount is sent\");\n        _;\n    }\n\n    function deposit() public payable {\n        require(payer == msg.sender, \"Sender must be the payer\");\n        // require(msg.value + contractBalance() >= amount, \"Amount exceeding!!!\");\n    }\n\n    function contractBalance() public view returns(uint256){\n        return address(this).balance;\n    }\n\n    function release() public thirdPartyOnly minimumWithdrawalAmount returns(uint256){\n        (bool callSuccess, ) = payable(payee).call{value: address(this).balance}(\"\");\n        require(callSuccess, \"Call failed\");\n\n        return contractBalance();\n    }\n\n\n}",
  "sourcePath": "/Users/herschelmenezes/VS Code/SEM 5/Blockchain/Truffle/contracts/Escrow.sol",
  "compiler": {
    "name": "solc",
    "version": "0.8.17+commit.8df45f5f.Emscripten.clang"
  },
  "schemaVersion": "3.4.10",
  "updatedAt": "2022-11-09T03:56:37.735Z",
  "devdoc": {
    "kind": "dev",
    "methods": {},
    "version": 1
  },
  "userdoc": {
    "kind": "user",
    "methods": {},
    "version": 1
  }
}