{
  "contractName": "Exp4",
  "abi": [
    {
      "inputs": [
        {
          "internalType": "address",
          "name": "_payee",
          "type": "address"
        },
        {
          "internalType": "address",
          "name": "_payer",
          "type": "address"
        },
        {
          "internalType": "uint256",
          "name": "_amount",
          "type": "uint256"
        }
      ],
      "stateMutability": "nonpayable",
      "type": "constructor"
    },
    {
      "inputs": [],
      "name": "returnAllParameters",
      "outputs": [
        {
          "internalType": "uint256",
          "name": "",
          "type": "uint256"
        },
        {
          "internalType": "address",
          "name": "",
          "type": "address"
        },
        {
          "internalType": "address",
          "name": "",
          "type": "address"
        },
        {
          "internalType": "address",
          "name": "",
          "type": "address"
        }
      ],
      "stateMutability": "view",
      "type": "function",
      "constant": true
    },
    {
      "inputs": [],
      "name": "deposit",
      "outputs": [],
      "stateMutability": "payable",
      "type": "function",
      "payable": true
    },
    {
      "inputs": [],
      "name": "contractBalance",
      "outputs": [
        {
          "internalType": "uint256",
          "name": "",
          "type": "uint256"
        }
      ],
      "stateMutability": "view",
      "type": "function",
      "constant": true
    },
    {
      "inputs": [],
      "name": "release",
      "outputs": [
        {
          "internalType": "uint256",
          "name": "",
          "type": "uint256"
        }
      ],
      "stateMutability": "nonpayable",
      "type": "function"
    }
  ],
  "bytecode": "0x608060405234801561001057600080fd5b506040516108e13803806108e18339818101604052810190610032919061019d565b33600360006101000a81548173ffffffffffffffffffffffffffffffffffffffff021916908373ffffffffffffffffffffffffffffffffffffffff16021790555082600160006101000a81548173ffffffffffffffffffffffffffffffffffffffff021916908373ffffffffffffffffffffffffffffffffffffffff16021790555081600260006101000a81548173ffffffffffffffffffffffffffffffffffffffff021916908373ffffffffffffffffffffffffffffffffffffffff160217905550806000819055505050506101f0565b600080fd5b600073ffffffffffffffffffffffffffffffffffffffff82169050919050565b600061013482610109565b9050919050565b61014481610129565b811461014f57600080fd5b50565b6000815190506101618161013b565b92915050565b6000819050919050565b61017a81610167565b811461018557600080fd5b50565b60008151905061019781610171565b92915050565b6000806000606084860312156101b6576101b5610104565b5b60006101c486828701610152565b93505060206101d586828701610152565b92505060406101e686828701610188565b9150509250925092565b6106e2806101ff6000396000f3fe60806040526004361061003f5760003560e01c806386d1a69f146100445780638b7afe2e1461006f578063d0e30db01461009a578063d5fccde3146100a4575b600080fd5b34801561005057600080fd5b506100596100d2565b60405161006691906103b8565b60405180910390f35b34801561007b57600080fd5b50610084610285565b60405161009191906103b8565b60405180910390f35b6100a261028d565b005b3480156100b057600080fd5b506100b961031f565b6040516100c99493929190610414565b60405180910390f35b60003373ffffffffffffffffffffffffffffffffffffffff16600360009054906101000a900473ffffffffffffffffffffffffffffffffffffffff1673ffffffffffffffffffffffffffffffffffffffff1614610164576040517f08c379a000000000000000000000000000000000000000000000000000000000815260040161015b906104dc565b60405180910390fd5b6000544710156101a9576040517f08c379a00000000000000000000000000000000000000000000000000000000081526004016101a09061056e565b60405180910390fd5b6000600160009054906101000a900473ffffffffffffffffffffffffffffffffffffffff1673ffffffffffffffffffffffffffffffffffffffff16476040516101f1906105bf565b60006040518083038185875af1925050503d806000811461022e576040519150601f19603f3d011682016040523d82523d6000602084013e610233565b606091505b5050905080610277576040517f08c379a000000000000000000000000000000000000000000000000000000000815260040161026e90610620565b60405180910390fd5b61027f610285565b91505090565b600047905090565b3373ffffffffffffffffffffffffffffffffffffffff16600260009054906101000a900473ffffffffffffffffffffffffffffffffffffffff1673ffffffffffffffffffffffffffffffffffffffff161461031d576040517f08c379a00000000000000000000000000000000000000000000000000000000081526004016103149061068c565b60405180910390fd5b565b600080600080600054600160009054906101000a900473ffffffffffffffffffffffffffffffffffffffff16600260009054906101000a900473ffffffffffffffffffffffffffffffffffffffff16600360009054906101000a900473ffffffffffffffffffffffffffffffffffffffff16935093509350935090919293565b6000819050919050565b6103b28161039f565b82525050565b60006020820190506103cd60008301846103a9565b92915050565b600073ffffffffffffffffffffffffffffffffffffffff82169050919050565b60006103fe826103d3565b9050919050565b61040e816103f3565b82525050565b600060808201905061042960008301876103a9565b6104366020830186610405565b6104436040830185610405565b6104506060830184610405565b95945050505050565b600082825260208201905092915050565b7f4f6e6c7920546869726420506172747920697320617574686f72697a6564207460008201527f6f206163636573732074686973206d6574686f64212121000000000000000000602082015250565b60006104c6603783610459565b91506104d18261046a565b604082019050919050565b600060208201905081810360008301526104f5816104b9565b9050919050565b7f43616e6e6f742072656c656173652066756e6473206265666f72652066756c6c60008201527f20616d6f756e742069732073656e740000000000000000000000000000000000602082015250565b6000610558602f83610459565b9150610563826104fc565b604082019050919050565b600060208201905081810360008301526105878161054b565b9050919050565b600081905092915050565b50565b60006105a960008361058e565b91506105b482610599565b600082019050919050565b60006105ca8261059c565b9150819050919050565b7f43616c6c206661696c6564000000000000000000000000000000000000000000600082015250565b600061060a600b83610459565b9150610615826105d4565b602082019050919050565b60006020820190508181036000830152610639816105fd565b9050919050565b7f53656e646572206d757374206265207468652070617965720000000000000000600082015250565b6000610676601883610459565b915061068182610640565b602082019050919050565b600060208201905081810360008301526106a581610669565b905091905056fea26469706673582212200b3e3ea9e82418a90d0f8b0e742383b2f3a1b6d2b6f2cca0982ea0cd05ec360b64736f6c63430008110033",
  "immutableReferences": {},
  "source": "// SPDX-License-Identifier: MIT\n\npragma solidity ^0.8.0;\n\ncontract Exp4{\n    uint256 amount;\n    address payee;     // person who is recieving the amount\n    address payer;     // person who is paying the amount\n    address thirdparty;\n\n    constructor(address _payee, address _payer, uint256 _amount){\n        thirdparty = msg.sender;  \n        payee = _payee;\n        payer = _payer;\n        amount = _amount;\n    }\n    \n    function returnAllParameters() public view returns(uint256, address, address, address){\n        return (amount, payee, payer, thirdparty);\n    }\n\n    modifier thirdPartyOnly {\n        require(thirdparty == msg.sender, \"Only Third Party is authorized to access this method!!!\");\n        _;\n    }\n    modifier minimumWithdrawalAmount {\n        require(address(this).balance >= amount, \"Cannot release funds before full amount is sent\");\n        _;\n    }\n\n    function deposit() public payable {\n        require(payer == msg.sender, \"Sender must be the payer\");\n        // require(msg.value + contractBalance() >= amount, \"Amount exceeding!!!\");\n    }\n\n    function contractBalance() public view returns(uint256){\n        return address(this).balance;\n    }\n\n    function release() public thirdPartyOnly minimumWithdrawalAmount returns(uint256){\n        (bool callSuccess, ) = payable(payee).call{value: address(this).balance}(\"\");\n        require(callSuccess, \"Call failed\");\n\n        return contractBalance();\n    }\n\n}",
  "sourcePath": "/Users/herschelmenezes/VS Code/SEM 5/Blockchain/Truffle/contracts/Exp4.sol",
  "compiler": {
    "name": "solc",
    "version": "0.8.17+commit.8df45f5f.Emscripten.clang"
  },
  "schemaVersion": "3.4.10",
  "updatedAt": "2022-11-26T05:55:39.527Z",
  "networkType": "ethereum",
  "devdoc": {
    "kind": "dev",
    "methods": {},
    "version": 1
  },
  "userdoc": {
    "kind": "user",
    "methods": {},
    "version": 1
  }
}